{
  "_format": "hh-sol-artifact-1",
  "contractName": "ProxySender",
  "sourceName": "contracts/ProxySender.sol",
  "abi": [
    {
      "inputs": [
        {
          "internalType": "address",
          "name": "_usdt",
          "type": "address"
        }
      ],
      "stateMutability": "nonpayable",
      "type": "constructor"
    },
    {
      "inputs": [
        {
          "internalType": "address",
          "name": "_contractAddress",
          "type": "address"
        },
        {
          "internalType": "uint256",
          "name": "_amount",
          "type": "uint256"
        },
        {
          "internalType": "address",
          "name": "_to",
          "type": "address"
        }
      ],
      "name": "resendAny",
      "outputs": [],
      "stateMutability": "nonpayable",
      "type": "function"
    },
    {
      "inputs": [
        {
          "internalType": "address",
          "name": "_to",
          "type": "address"
        }
      ],
      "name": "resendETH",
      "outputs": [],
      "stateMutability": "payable",
      "type": "function"
    },
    {
      "inputs": [
        {
          "internalType": "uint256",
          "name": "_amount",
          "type": "uint256"
        },
        {
          "internalType": "address",
          "name": "_to",
          "type": "address"
        }
      ],
      "name": "resendUSDT",
      "outputs": [],
      "stateMutability": "nonpayable",
      "type": "function"
    }
  ],
  "bytecode": "0x608060405234801561001057600080fd5b5060405161048038038061048083398101604081905261002f91610054565b600080546001600160a01b0319166001600160a01b0392909216919091179055610084565b60006020828403121561006657600080fd5b81516001600160a01b038116811461007d57600080fd5b9392505050565b6103ed806100936000396000f3fe6080604052600436106100345760003560e01c806395600ae314610039578063a14d31f81461005b578063adc443511461007b575b600080fd5b34801561004557600080fd5b5061005961005436600461038b565b61008e565b005b34801561006757600080fd5b5061005961007636600461032d565b6101a4565b61005961008936600461030b565b6102b6565b6000546040516323b872dd60e01b8152336004820152306024820152604481018490526001600160a01b03909116906323b872dd90606401602060405180830381600087803b1580156100e057600080fd5b505af11580156100f4573d6000803e3d6000fd5b505050506040513d601f19601f820116820180604052508101906101189190610369565b5060005460405163a9059cbb60e01b81526001600160a01b038381166004830152602482018590529091169063a9059cbb90604401602060405180830381600087803b15801561016757600080fd5b505af115801561017b573d6000803e3d6000fd5b505050506040513d601f19601f8201168201806040525081019061019f9190610369565b505050565b6040516323b872dd60e01b81523360048201523060248201526044810183905283906001600160a01b038216906323b872dd90606401602060405180830381600087803b1580156101f457600080fd5b505af1158015610208573d6000803e3d6000fd5b505050506040513d601f19601f8201168201806040525081019061022c9190610369565b5060405163a9059cbb60e01b81526001600160a01b0383811660048301526024820185905282169063a9059cbb90604401602060405180830381600087803b15801561027757600080fd5b505af115801561028b573d6000803e3d6000fd5b505050506040513d601f19601f820116820180604052508101906102af9190610369565b5050505050565b6040516001600160a01b038216903480156108fc02916000818181858888f193505050501580156102eb573d6000803e3d6000fd5b5050565b80356001600160a01b038116811461030657600080fd5b919050565b60006020828403121561031d57600080fd5b610326826102ef565b9392505050565b60008060006060848603121561034257600080fd5b61034b846102ef565b925060208401359150610360604085016102ef565b90509250925092565b60006020828403121561037b57600080fd5b8151801515811461032657600080fd5b6000806040838503121561039e57600080fd5b823591506103ae602084016102ef565b9050925092905056fea2646970667358221220830f48e4a6c279f8e06035681ff09526a6b79b30f90b282e7a7fd6587e4fe4a164736f6c63430008060033",
  "linkReferences": {},
  "deployedLinkReferences": {}
}